:100000000C942A000C943F000C943F000C943F0089
:100010000C943F000C943F000C943F000C943F0064
:100020000C943F000C943F000C943F000C943F0054
:100030000C943F000C943F000C943F000C943F0044
:100040000C943F000C943F000C943F000C943F0034
:100050000C943F0011241FBECFE5D8E0DEBFCDBF1A
:1000600010E0A0E6B0E0E6E4FAE202C005900D92EE
:10007000A239B107D9F70E941A110C9421150C94DA
:100080000000EF92FF920F931F937B018C0120E001
:1000900030E040E05FE40E94ED0388238CF0C8016B
:1000A000B70120E030E040E05FE40E94B9010E9427
:1000B0004D049B01AC01205030404040504806C0E8
:1000C000C801B7010E944D049B01AC01B901CA01EE
:1000D0001F910F91FF90EF900895A0E0B0E0E3E74B
:1000E000F0E00C94EA14DC012B01FA019C919230AF
:1000F00008F439C1EB018881823008F433C19430AF
:1001000069F4843009F02FC111969C91119789816F
:10011000981709F428C1A1E7B0E025C1843009F49B
:1001200021C18230A9F4923009F01DC19A01AD01BC
:1001300088E0EA010990AE01E90109929E0181502F
:10014000C1F7E201898111969C918923818308C1BD
:10015000923009F407C112962D903C901397EB0151
:100160008A819B811496AD90BD90CD90DC901797BD
:10017000EC80FD800E811F819101281B390BB90194
:1001800037FF04C066277727621B730B6032710547
:100190000CF061C0121613066CF537014801062EEB
:1001A00004C096948794779467940A94D2F721E0D8
:1001B00030E040E050E004C0220F331F441F551FC1
:1001C0006A95D2F721503040404050402E213F21C7
:1001D00040235123211531054105510521F021E02E
:1001E00030E040E050E079018A01E628F72808294C
:1001F00019293CC0232BD1F1260E371E35014601AB
:10020000062E04C096948794779467940A94D2F744
:1002100021E030E040E050E004C0220F331F441FD3
:10022000551F6A95D2F721503040404050402A2156
:100230003B214C215D21211531054105510521F05E
:1002400021E030E040E050E059016A01A628B728DB
:10025000C828D9280BC0821593052CF01C01AA24AC
:10026000BB24650103C0EE24FF24870111969C91F5
:10027000D20111968C91981709F445C0992339F051
:10028000A80197012A193B094C095D0906C0A6017E
:1002900095012E193F09400B510B57FD08C01182E3
:1002A0003382228224833583468357831DC081E0B5
:1002B00081833382228288279927DC01821B930B5A
:1002C000A40BB50B84839583A683B7830DC0220F3F
:1002D000331F441F551F24833583468357838281F0
:1002E000938101979383828324813581468157814D
:1002F000DA01C9010197A109B1098F5F9F4FAF4F83
:10030000BF4328F30BC0918333822282EA0CFB1C8B
:100310000C1D1D1DE482F5820683178383E0808314
:10032000248135814681578157FF1AC0C901AA2708
:1003300097FDA095BA2F81709070A070B0705695FF
:10034000479537952795822B932BA42BB52B848328
:100350009583A683B7838281938101969383828359
:10036000DF0101C0D201CD01CDB7DEB7E2E10C94CF
:100370000615A0E2B0E0EFEBF1E00C94F61469830F
:100380007A838B839C832D833E834F835887E9E058
:10039000EE2EF12CEC0EFD1ECE010196B7010E944F
:1003A00076058E010F5E1F4FCE010596B8010E94A3
:1003B00076058A8991E089278A8BC701B801AE0149
:1003C000475E5F4F0E946D000E94A104A096E6E088
:1003D0000C941215A0E2B0E0E0EFF1E00C94F614FA
:1003E00069837A838B839C832D833E834F835887D5
:1003F000F9E0EF2EF12CEC0EFD1ECE010196B701B7
:100400000E9476058E010F5E1F4FCE010596B80142
:100410000E947605C701B801AE01475E5F4F0E949A
:100420006D000E94A104A096E6E00C941215A0E2D3
:10043000B0E0EDE1F2E00C94EA1469837A838B83F7
:100440009C832D833E834F835887CE010196BE0146
:10045000675F7F4F0E947605CE010596BE016F5EF5
:100460007F4F0E9476059985923088F08989823085
:10047000C8F0943019F4823051F404C0843029F467
:10048000923081F481E790E0C6C0923049F420E0D8
:100490009A858A89981321E02A87CE010996BBC0E4
:1004A000823049F420E09A858A89981321E02A8BCA
:1004B000CE014196B0C02D843E844F8458886D880B
:1004C0007E888F88988CEE24FF248701AA24BB2481
:1004D000650140E050E060E070E0E0E0F0E0C10184
:1004E00081709070892BE9F0E60CF71C081D191D2E
:1004F0009A01AB012A0D3B1D4C1D5D1D80E090E073
:10050000A0E0B0E0E614F7040805190520F481E046
:1005100090E0A0E0B0E0BA01A901480F591F6A1F9E
:100520007B1FAA0CBB1CCC1CDD1C97FE08C081E005
:1005300090E0A0E0B0E0A82AB92ACA2ADB2A3196C6
:10054000E032F10549F0660C771C881C991C569422
:10055000479437942794C3CFFA85EA892B893C893D
:100560008B859C85280F391F2E5F3F4F17C0CA010E
:1005700081709070892B61F016950795F794E79438
:1005800080E090E0A0E0B0E8E82AF92A0A2B1B2BD3
:1005900076956795579547952F5F3F4F77FDE7CF46
:1005A0000CC0440F551F661F771F17FD4160EE0CEE
:1005B000FF1C001F111F21503040403090E05907B0
:1005C00090E0690790E4790760F32B8F3C8FDB01A3
:1005D000CA018F779070A070B07080349105A1052A
:1005E000B10561F447FD0AC0E114F10401051105EC
:1005F00029F0405C5F4F6F4F7F4F40781A8EFE1797
:1006000011F081E08A8F4D8F5E8F6F8F78A383E02A
:10061000898FCE0149960E94A104A096E2E10C9434
:100620000615A8E1B0E0E7E1F3E00C94F214698369
:100630007A838B839C832D833E834F835887B9E0D5
:10064000EB2EF12CEC0EFD1ECE010196B7010E949F
:1006500076058E010F5E1F4FCE010596B8010E94F0
:1006600076052985223008F47EC03989323010F4AD
:10067000B8017CC08A859A8989278A87243011F03D
:10068000223031F4231709F06EC061E770E06EC0CC
:10069000343039F41D861E861F86188A1C861B86F8
:1006A00004C0323021F484E08987B7015FC02B8514
:1006B0003C858B899C89281B390B3C872B87ED84D3
:1006C000FE840F851889AD88BE88CF88D88CEA143F
:1006D000FB040C051D0540F4EE0CFF1C001F111F50
:1006E000215030403C872B8720E030E040E050E054
:1006F00080E090E0A0E0B0E460E070E0EA14FB0489
:100700000C051D0540F0282B392B4A2B5B2BEA18D2
:10071000FB080C091D09B695A79597958795EE0CD2
:10072000FF1C001F111F6F5F7F4F6F31710531F785
:10073000DA01C9018F779070A070B0708034910594
:10074000A105B10561F427FD0AC0E114F10401051A
:10075000110529F0205C3F4F4F4F5F4F20782D87C8
:100760003E874F87588BBE01675F7F4FCB010E944A
:10077000A1046896EAE00C940E15A8E1B0E0E3EC61
:10078000F3E00C94F61469837A838B839C832D8326
:100790003E834F83588789E0E82EF12CEC0EFD1E36
:1007A000CE010196B7010E9476058E010F5E1F4FA4
:1007B000CE010596B8010E9476058985823040F009
:1007C0008989823028F0C701B8010E94EE0501C076
:1007D0008FEF6896E6E00C941215A8E1B0E0E3EF25
:1007E000F3E00C94F61469837A838B839C832D83C6
:1007F0003E834F83588789E0E82EF12CEC0EFD1ED6
:10080000CE010196B7010E9476058E010F5E1F4F43
:10081000CE010596B8010E9476058985823040F0A8
:100820008989823028F0C701B8010E94EE0501C015
:100830008FEF6896E6E00C941215A8E1B0E0E3E2D1
:10084000F4E00C94F61469837A838B839C832D8364
:100850003E834F83588789E0E82EF12CEC0EFD1E75
:10086000CE010196B7010E9476058E010F5E1F4FE3
:10087000CE010596B8010E9476058985823040F048
:100880008989823028F0C701B8010E94EE0501C0B5
:1008900081E06896E6E00C941215ACE0B0E0E3E588
:1008A000F4E00C94FA1469837A838B839C83CE01E1
:1008B0000196BE016B5F7F4F0E9476058D8182306D
:1008C00061F1823050F1843021F48E81882351F11E
:1008D0002EC02F81388537FD20C06E812F31310524
:1008E0001CF06623F9F023C08EE190E0821B930B8D
:1008F00029853A854B855C8504C056954795379583
:1009000027958A95D2F76623B1F05095409530959A
:1009100021953F4F4F4F5F4F0EC020E030E040E049
:1009200050E009C02FEF3FEF4FEF5FE704C020E03A
:1009300030E040E050E8B901CA012C96E2E00C94A6
:100940001615DF92EF92FF920F931F93FC01E48044
:10095000F58006811781D1808081823048F480E063
:1009600090E0A0E1B0E0E82AF92A0A2B1B2BA5C0F1
:10097000843009F49FC0823021F4EE24FF248701E3
:1009800005C0E114F1040105110519F4E0E0F0E0FF
:1009900096C0628173819FEF623879070CF05BC06B
:1009A00022E83FEF261B370B2A3131052CF020E0DF
:1009B00030E040E050E02AC0B801A701022E04C098
:1009C00076956795579547950A94D2F781E090E020
:1009D000A0E0B0E004C0880F991FAA1FBB1F2A9592
:1009E000D2F70197A109B1098E219F21A023B1233C
:1009F0000097A105B10521F081E090E0A0E0B0E012
:100A00009A01AB01282B392B4A2B5B2BDA01C90148
:100A10008F779070A070B07080349105A105B105FA
:100A200039F427FF09C0205C3F4F4F4F5F4F04C090
:100A3000215C3F4F4F4F5F4FE0E0F0E02030A0E0FF
:100A40003A07A0E04A07A0E45A0710F0E1E0F0E01E
:100A500079018A0127C06038710564F5FB01E1580E
:100A6000FF4FD801C7018F779070A070B0708034AD
:100A70009105A105B10539F4E7FE0DC080E490E0D1
:100A8000A0E0B0E004C08FE390E0A0E0B0E0E80EAA
:100A9000F91E0A1F1B1F17FF05C016950795F7942F
:100AA000E794319687E016950795F794E7948A9531
:100AB000D1F705C0EE24FF248701EFEFF0E06E2FA1
:100AC000679566276795902F9F77D794DD24D794F5
:100AD0008E2F8695492F462B582F5D29B701CA01C5
:100AE0001F910F91FF90EF90DF900895FC01DB01C3
:100AF000408151812281622F6F7770E0221F22276F
:100B0000221F9381892F880F822B282F30E0991F75
:100B10009927991F11969C93119721153105A9F5D5
:100B2000411551056105710511F482E037C082E875
:100B30009FEF13969C938E9312979A01AB0167E0F7
:100B4000220F331F441F551F6A95D1F783E08C9302
:100B50000DC0220F331F441F551F12968D919C917B
:100B60001397019713969C938E931297203080E0F1
:100B7000380780E0480780E4580758F314962D930F
:100B80003D934D935C93179708952F3F310579F46A
:100B9000411551056105710519F484E08C930895A0
:100BA00064FF03C081E08C9312C01C9210C02F57C9
:100BB000304013963C932E93129783E08C9387E0FA
:100BC000440F551F661F771F8A95D1F770641496DE
:100BD0004D935D936D937C93179708951F93DC015C
:100BE000FB019C91923008F447C08081823008F468
:100BF00043C0943051F411961C91843099F5818151
:100C0000682F70E0611B71093FC0843021F0923081
:100C100031F48230B9F18181882389F12DC0119698
:100C20001C9111978230F1F081811817D9F4129636
:100C30002D913C911397828193818217930794F0B1
:100C400028173907BCF014968D919D910D90BC9199
:100C5000A02D2481358146815781281739074A07FD
:100C60005B0718F4112341F00AC082179307A40709
:100C7000B50740F4112319F061E070E005C06FEF93
:100C80007FEF02C060E070E0CB011F9108950F93E9
:100C90001F93DF93CF93CDB7DEB7CC54D0400FB6C0
:100CA000F894DEBF0FBECDBFFE01E75BFF4F80E0D3
:100CB00090E0A0E2B2E480839183A283B3838E01AB
:100CC0000B5B1F4FFE01E75BFF4F608171818281EB
:100CD000938120E030E04AE755E40E941702DC01EE
:100CE000CB01F80180839183A283B383FE01EB5B88
:100CF000FF4F608171818281938120E030E040E884
:100D00005FE30E941D04882344F4FE01ED5BFF4F66
:100D100081E090E09183808364C0FE01EB5BFF4F34
:100D2000608171818281938120E03FEF4FE757E43A
:100D30000E94BD0318160CF043C0FE01E75BFF4F95
:100D4000608171818281938120E030E040E251E452
:100D50000E941702DC01CB018E010D5B1F4FBC010D
:100D6000CD010E944100DC01CB01F8019183808319
:100D70001FC0FE01EF5BFF4F80E991E0918380830C
:100D8000FE01EF5BFF4F808191810197F1F7FE013A
:100D9000EF5BFF4F91838083DE01AD5BBF4FFE01B0
:100DA000ED5BFF4F80819181019711969C938E930B
:100DB000FE01ED5BFF4F808191810097D1F624C049
:100DC0008E010D5B1F4FFE01EB5BFF4F6081718158
:100DD000828193810E944100DC01CB01F801918363
:100DE0008083FE01ED5BFF4F80819181FE01FF96C4
:100DF00091838083FE01FF96808191810197F1F7B5
:100E0000FE01FF969183808382E00E940D0988E2B3
:100E10000E940D0980E090E0A4E3B2E48BAF9CAFA8
:100E2000ADAFBEAF6BAD7CAD8DAD9EAD2BEA3AEAFA
:100E30004AEA50E40E941702DC01CB018FAB98AF65
:100E4000A9AFBAAF6FA978AD89AD9AAD20E030E017
:100E500040E85FE30E941D0488231CF481E08EAB10
:100E600091C06FA978AD89AD9AAD20E030E04FE731
:100E700053E40E94BD0318160CF07BC06BAD7CAD33
:100E80008DAD9EAD20E030E04AE754E40E941103AE
:100E9000DC01CB018AAB9BABACABBDAB6AA97BA938
:100EA0008CA99DA920E030E04AE755E40E94170292
:100EB000DC01CB018EA79FA7A8ABB9AB6EA57FA520
:100EC00088A999A920E030E040E85FE30E941D0472
:100ED00088232CF481E090E09DA78CA73FC06EA5ED
:100EE0007FA588A999A920E03FEF4FE757E40E942A
:100EF000BD0318164CF56AA97BA98CA99DA920E011
:100F000030E040E251E40E941702DC01CB01BC0159
:100F1000CD010E944100DC01CB019DA78CA70FC031
:100F200080E991E09BA78AA78AA59BA50197F1F785
:100F30009BA78AA78CA59DA501979DA78CA78CA58B
:100F40009DA5009769F724C06EA57FA588A999A9DA
:100F50000E944100DC01CB019DA78CA78CA59DA51B
:100F600099A788A788A599A50197F1F799A788A7B8
:100F70000FC06FA978AD89AD9AAD0E944100DC0128
:100F8000CB018EAB8EA98FA38FA18A95F1F78FA38A
:100F90008FE00E940D0980E090E0A4E3B2E48BA30F
:100FA0009CA3ADA3BEA36BA17CA18DA19EA12BEAA6
:100FB0003AEA4AEA50E40E941702DC01CB018F8F23
:100FC00098A3A9A3BAA36F8D78A189A19AA120E0C3
:100FD00030E040E85FE30E941D0488231CF481E0B8
:100FE0008E8F91C06F8D78A189A19AA120E030E009
:100FF0004FE753E40E94BD0318160CF07BC06BA1B1
:101000007CA18DA19EA120E030E04AE754E40E943B
:101010001103DC01CB018A8F9B8FAC8FBD8F6A8D52
:101020007B8D8C8D9D8D20E030E04AE755E40E9459
:101030001702DC01CB018E8B9F8BA88FB98F6E8935
:101040007F89888D998D20E030E040E85FE30E9441
:101050001D0488232CF481E090E09D8B8C8B3FC095
:101060006E897F89888D998D20E03FEF4FE757E4A7
:101070000E94BD0318164CF56A8D7B8D8C8D9D8D5D
:1010800020E030E040E251E40E941702DC01CB0195
:10109000BC01CD010E944100DC01CB019D8B8C8BFA
:1010A0000FC080E991E09B8B8A8B8A899B8901978D
:1010B000F1F79B8B8A8B8C899D8901979D8B8C8BFB
:1010C0008C899D89009769F724C06E897F89888DF6
:1010D000998D0E944100DC01CB019D8B8C8B8C890A
:1010E0009D89998B888B888999890197F1F7998BCC
:1010F000888B0FC06F8D78A189A19AA10E944100B1
:10110000DC01CB018E8F8E8D8F878F858A95F1F7CD
:101110008F8781E00E940D0980E090E0A0E0B0E4BC
:101120008B879C87AD87BE876B857C858D859E85EB
:1011300020E030E04AE755E40E941702DC01CB01D1
:101140008F839887A987BA876F81788589859A85E3
:1011500020E030E040E85FE30E941D0488232CF487
:1011600081E090E09E838D833FC06F817885898583
:101170009A8520E03FEF4FE757E40E94BD03181621
:101180004CF56B857C858D859E8520E030E040E2C6
:1011900051E40E941702DC01CB01BC01CD010E9489
:1011A0004100DC01CB019E838D830FC080E991E07B
:1011B0009C838B838B819C810197F1F79C838B832C
:1011C0008D819E8101979E838D838D819E81009765
:1011D00069F714C06F81788589859A850E944100DE
:1011E000DC01CB019E838D838D819E819A838983CF
:1011F00089819A810197F1F79A83898386E00E9419
:101200000D09C45BDF4F0FB6F894DEBF0FBECDBF34
:10121000CF91DF911F910F910895DF93CF93CDB7B9
:10122000DEB7EB970FB6F894DEBF0FBECDBF8BAF26
:1012300080E063E040E00E94930E80E062E041E0E5
:101240000E94930E80E090E0A0E8B0E48DAB9EABEE
:10125000AFABB8AF6DA97EA98FA998AD20E030E003
:101260004AE755E40E941702DC01CB0189AB9AAB37
:10127000ABABBCAB69A97AA98BA99CA920E030E0F3
:1012800040E85FE30E941D0488232CF481E090E095
:1012900098AB8FA73FC069A97AA98BA99CA920E028
:1012A0003FEF4FE757E40E94BD0318164CF56DA9B8
:1012B0007EA98FA998AD20E030E040E251E40E9481
:1012C0001702DC01CB01BC01CD010E944100DC0111
:1012D000CB0198AB8FA70FC080E991E09EA78DA7A7
:1012E0008DA59EA50197F1F79EA78DA78FA598A91B
:1012F000019798AB8FA78FA598A9009769F714C09D
:1013000069A97AA98BA99CA90E944100DC01CB01A3
:1013100098AB8FA78FA598A99CA78BA78BA59CA5F9
:101320000197F1F79CA78BA78BAD82958F70282F23
:1013300027708BAD82958F70882F90E088709070A9
:10134000880F991F822B8AAF81E06AAD0E949E0FA1
:1013500080E062E040E00E94930E80E090E0A0E830
:10136000B0E48FA398A7A9A7BAA76FA178A589A56C
:101370009AA520E030E04AE755E40E941702DC011C
:10138000CB018BA39CA3ADA3BEA36BA17CA18DA11C
:101390009EA120E030E040E85FE30E941D04882326
:1013A0002CF481E090E09AA389A33FC06BA17CA1BB
:1013B0008DA19EA120E03FEF4FE757E40E94BD03BF
:1013C00018164CF56FA178A589A59AA520E030E004
:1013D00040E251E40E941702DC01CB01BC01CD01C7
:1013E0000E944100DC01CB019AA389A30FC080E9D0
:1013F00091E098A38F8F8F8D98A10197F1F798A313
:101400008F8F89A19AA101979AA389A389A19AA1F3
:10141000009769F714C06BA17CA18DA19EA10E94C9
:101420004100DC01CB019AA389A389A19AA19E8FD7
:101430008D8F8D8D9E8D0197F1F79E8F8D8F80E022
:1014400062E041E00E94930E80E090E0A0E8B0E40A
:10145000898F9A8FAB8FBC8F698D7A8D8B8D9C8D88
:1014600020E030E04AE755E40E941702DC01CB019E
:101470008D8B9E8BAF8BB88F6D897E898F89988D70
:1014800020E030E040E85FE30E941D0488232CF454
:1014900081E090E09C8B8B8B3FC06D897E898F892A
:1014A000988D20E03FEF4FE757E40E94BD031816E8
:1014B0004CF5698D7A8D8B8D9C8D20E030E040E27B
:1014C00051E40E941702DC01CB01BC01CD010E9456
:1014D0004100DC01CB019C8B8B8B0FC080E991E03C
:1014E0009A8B898B89899A890197F1F79A8B898BD5
:1014F0008B899C8901979C8B8B8B8B899C8900970E
:1015000069F714C06D897E898F89988D0E9441008A
:10151000DC01CB019C8B8B8B8B899C89988B8F8773
:101520008F8598890197F1F7988B8F878BAD282F3E
:1015300027708BAD882F90E088709070880F991F6E
:10154000822B89AF81E069AD0E949E0F80E062E04E
:1015500040E00E94930E80E090E0A0E8B0E48B872A
:101560009C87AD87BE876B857C858D859E8520E0B9
:1015700030E04AE755E40E941702DC01CB018F837B
:101580009887A987BA876F81788589859A8520E0B1
:1015900030E040E85FE30E941D0488232CF481E0E2
:1015A00090E09E838D833FC06F81788589859A8581
:1015B00020E03FEF4FE757E40E94BD0318164CF5BB
:1015C0006B857C858D859E8520E030E040E251E48E
:1015D0000E941702DC01CB01BC01CD010E94410039
:1015E000DC01CB019E838D830FC080E991E09C8359
:1015F0008B838B819C810197F1F79C838B838D81F9
:101600009E8101979E838D838D819E81009769F7CE
:1016100014C06F81788589859A850E944100DC011C
:10162000CB019E838D838D819E819A83898389815D
:101630009A810197F1F79A838983EB960FB6F89414
:10164000DEBF0FBECDBFCF91DF910895DF93CF9363
:10165000CDB7DEB7EB970FB6F894DEBF0FBECDBFA8
:101660008BAF80E063E041E00E94930E80E062E097
:1016700041E00E94930E80E090E0A0E8B0E48DABE2
:101680009EABAFABB8AF6DA97EA98FA998AD20E096
:1016900030E04AE755E40E941702DC01CB0189AB38
:1016A0009AABABABBCAB69A97AA98BA99CA920E08A
:1016B00030E040E85FE30E941D0488232CF481E0C1
:1016C00090E098AB8FA73FC069A97AA98BA99CA984
:1016D00020E03FEF4FE757E40E94BD0318164CF59A
:1016E0006DA97EA98FA998AD20E030E040E251E4D9
:1016F0000E941702DC01CB01BC01CD010E94410018
:10170000DC01CB0198AB8FA70FC080E991E09EA7C9
:101710008DA78DA59EA50197F1F79EA78DA78FA5F3
:1017200098A9019798AB8FA78FA598A9009769F7FB
:1017300014C069A97AA98BA99CA90E944100DC0167
:10174000CB0198AB8FA78FA598A99CA78BA78BA53A
:101750009CA50197F1F79CA78BA78BAD82958F7005
:10176000282F27708BAD82958F70882F90E088701E
:101770009070880F991F822B8AAF81E06AAD0E941A
:101780009E0F80E062E040E00E94930E80E090E0D7
:10179000A0E8B0E48FA398A7A9A7BAA76FA178A5DE
:1017A00089A59AA520E030E04AE755E40E94170297
:1017B000DC01CB018BA39CA3ADA3BEA36BA17CA139
:1017C0008DA19EA120E030E040E85FE30E941D046F
:1017D00088232CF481E090E09AA389A33FC06BA1F9
:1017E0007CA18DA19EA120E03FEF4FE757E40E942E
:1017F000BD0318164CF56FA178A589A59AA520E020
:1018000030E040E251E40E941702DC01CB01BC0150
:10181000CD010E944100DC01CB019AA389A30FC036
:1018200080E991E098A38F8F8F8D98A10197F1F7B0
:1018300098A38F8F89A19AA101979AA389A389A1BF
:101840009AA1009769F714C06BA17CA18DA19EA1FC
:101850000E944100DC01CB019AA389A389A19AA12E
:101860009E8F8D8F8D8D9E8D0197F1F79E8F8D8F21
:1018700080E062E041E00E94930E80E090E0A0E80A
:10188000B0E4898F9A8FAB8FBC8F698D7A8D8B8DE9
:101890009C8D20E030E04AE755E40E941702DC010D
:1018A000CB018D8B9E8BAF8BB88F6D897E898F8995
:1018B000988D20E030E040E85FE30E941D0488231B
:1018C0002CF481E090E09C8B8B8B3FC06D897E89EE
:1018D0008F89988D20E03FEF4FE757E40E94BD03CA
:1018E00018164CF5698D7A8D8B8D9C8D20E030E03B
:1018F00040E251E40E941702DC01CB01BC01CD01A2
:101900000E944100DC01CB019C8B8B8B0FC080E9D6
:1019100091E09A8B898B89899A890197F1F79A8B43
:10192000898B8B899C8901979C8B8B8B8B899C895C
:10193000009769F714C06D897E898F89988D0E9400
:101940004100DC01CB019C8B8B8B8B899C89988B14
:101950008F878F8598890197F1F7988B8F878BAD4B
:10196000282F27708BAD882F90E088709070880F9B
:10197000991F822B89AF81E069AD0E949E0F80E0A4
:1019800062E040E00E94930E80E090E0A0E8B0E4C6
:101990008B879C87AD87BE876B857C858D859E8573
:1019A00020E030E04AE755E40E941702DC01CB0159
:1019B0008F839887A987BA876F81788589859A856B
:1019C00020E030E040E85FE30E941D0488232CF40F
:1019D00081E090E09E838D833FC06F81788589850B
:1019E0009A8520E03FEF4FE757E40E94BD031816A9
:1019F0004CF56B857C858D859E8520E030E040E24E
:101A000051E40E941702DC01CB01BC01CD010E9410
:101A10004100DC01CB019E838D830FC080E991E002
:101A20009C838B838B819C810197F1F79C838B83B3
:101A30008D819E8101979E838D838D819E810097EC
:101A400069F714C06F81788589859A850E94410065
:101A5000DC01CB019E838D838D819E819A83898356
:101A600089819A810197F1F79A838983EB960FB662
:101A7000F894DEBF0FBECDBFCF91DF910895DF9305
:101A8000CF9300D00F92CDB7DEB79B838A831982A4
:101A90000EC08981282F30E08A819B81FC01E20FF2
:101AA000F31F80810E94260B89818F5F8983898142
:101AB000282F30E08A819B81FC01E20FF31F808197
:101AC000882339F70F900F900F90CF91DF910895F1
:101AD000DF93CF9300D00F92CDB7DEB78A836B83AD
:101AE00019828B81882319F48A81898314C08B81A0
:101AF000813021F48A81805C89830DC08B818230A2
:101B000021F48A818C5E898306C08B81833019F42D
:101B10008A818C5A8983898180580E940D090F908F
:101B20000F900F90CF91DF910895DF93CF93CDB7B2
:101B3000DEB727970FB6F894DEBF0FBECDBF9C83EC
:101B40008B836D834E832F838D81882F90E0880F48
:101B5000991F880F991F880F991F8A838A81805C3B
:101B60000E940D0919820EC08981282F30E08B81D7
:101B70009C81FC01E20FF31F80810E94260B89816A
:101B80008F5F89838981883078F38E816F810E948D
:101B9000680D8D810E94260B27960FB6F894DEBF44
:101BA0000FBECDBFCF91DF910895DF93CF93CDB717
:101BB000DEB76D970FB6F894DEBF0FBECDBF6D8B4D
:101BC0007E8B8F8B988FCE010B969A8F898FE0E654
:101BD000F0E0FC8FEB8FFAE0FD8FEB8DFC8D008049
:101BE0008B8D9C8D01969C8F8B8FE98DFA8D008259
:101BF000898D9A8D01969A8F898F9D8D91509D8F99
:101C0000ED8DEE2351F781E090E0A0E0B0E08E830F
:101C10009F83A887B9871D828D899E89AF89B88DDA
:101C200089839A83AB83BC8315C08D818F5F8D833D
:101C30008D899E89AF89B88D2AE030E040E050E080
:101C4000BC01CD010E94C814DA01C9018D8B9E8BA5
:101C5000AF8BB88F8D899E89AF89B88D0097A1050C
:101C6000B10519F78D8181508A8715C08E819F81BA
:101C7000A885B9852AE030E040E050E0BC01CD0104
:101C80000E94A914DC01CB018E839F83A887B987AA
:101C90008A8581508A878A85882341F78D818A8742
:101CA00036C089819A81AB81BC812E813F81488574
:101CB0005985BC01CD010E94C814DA01C9012AE08E
:101CC00030E040E050E0BC01CD010E94C814DC01CE
:101CD000CB019E01255F3F4FF901E80FF91F80817D
:101CE0000E94260B8E819F81A885B9852AE030E06D
:101CF00040E050E0BC01CD010E94C814DA01C901E6
:101D00008E839F83A887B9878A8581508A878A8531
:101D1000882339F66D960FB6F894DEBF0FBECDBF9F
:101D2000CF91DF910895DF93CF93CDB7DEB728979A
:101D30000FB6F894DEBF0FBECDBF8A836B834C8392
:101D400019828C81882309F077C08A81282F30E09E
:101D500038872F838F8198858130910559F12F81A4
:101D60003885223031052CF48F819885009769F0F1
:101D700060C02F8138852230310589F18F819885A7
:101D80008330910509F440C054C0ABE3B0E0EBE30D
:101D9000F0E08081482F8B81282F30E081E090E0B7
:101DA000022E02C0880F991F0A94E2F780958423BF
:101DB0008C93BAC0A8E3B0E0E8E3F0E08081482F5C
:101DC0008B81282F30E081E090E0022E02C0880F46
:101DD000991F0A94E2F7809584238C93A5C0A5E30C
:101DE000B0E0E5E3F0E08081482F8B81282F30E0E0
:101DF00081E090E0022E02C0880F991F0A94E2F75A
:101E0000809584238C9390C0A2E3B0E0E2E3F0E0FD
:101E10008081482F8B81282F30E081E090E0022ED6
:101E200002C0880F991F0A94E2F7809584238C934F
:101E30007BC081E0898378C08C81813009F072C0D9
:101E40008A81282F30E03E832D838D819E818130D1
:101E5000910549F12D813E81223031052CF48D818F
:101E60009E81009761F05BC02D813E81223031055B
:101E700071F18D819E8183309105E9F150C0ABE312
:101E8000B0E0EBE3F0E08081482F8B81282F30E039
:101E900081E090E0022E02C0880F991F0A94E2F7B9
:101EA000842B8C9341C0A8E3B0E0E8E3F0E08081AC
:101EB000482F8B81282F30E081E090E0022E02C075
:101EC000880F991F0A94E2F7842B8C932DC0A5E309
:101ED000B0E0E5E3F0E08081482F8B81282F30E0EF
:101EE00081E090E0022E02C0880F991F0A94E2F769
:101EF000842B8C9319C0A2E3B0E0E2E3F0E0808190
:101F0000482F8B81282F30E081E090E0022E02C024
:101F1000880F991F0A94E2F7842B8C9305C081E007
:101F2000898302C081E08983898128960FB6F8945D
:101F3000DEBF0FBECDBFCF91DF910895DF93CF936A
:101F400000D000D00F92CDB7DEB78A836B831982A1
:101F50008A81282F30E03D832C838C819D818130C4
:101F60009105D1F02C813D81223031052CF48C81FA
:101F70009D81009761F01FC02C813D812230310589
:101F800081F08C819D818330910581F014C0EBE359
:101F9000F0E08B81808311C0E8E3F0E08B818083E7
:101FA0000CC0E5E3F0E08B81808307C0E2E3F0E062
:101FB0008B81808302C081E0898389810F900F909B
:101FC0000F900F900F90CF91DF910895DF93CF93F3
:101FD000CDB7DEB727970FB6F894DEBF0FBECDBFE3
:101FE0008A836B835D834C8319828C819D810097EA
:101FF00009F478C08B81883008F074C08A81282F5A
:1020000030E03F832E834E815F814130510559F18D
:102010008E819F818230910534F42E813F8121157C
:10202000310569F05CC04E815F814230510579F124
:102030008E819F818330910509F43DC050C0E9E352
:10204000F0E08081282F30E08B81882F90E0A9017B
:1020500002C0559547958A95E2F7CA018170EC81D7
:10206000FD81808341C0E6E3F0E08081282F30E0ED
:102070008B81882F90E0A90102C0559547958A95DC
:10208000E2F7CA018170EC81FD8180832DC0E3E31A
:10209000F0E08081282F30E08B81882F90E0A9012B
:1020A00002C0559547958A95E2F7CA018170EC8187
:1020B000FD81808319C0E0E3F0E08081282F30E0CB
:1020C0008B81882F90E0A90102C0559547958A958C
:1020D000E2F7CA018170EC81FD81808305C081E057
:1020E000898302C081E08983898127960FB6F8949D
:1020F000DEBF0FBECDBFCF91DF910895DF93CF93A9
:1021000000D000D00F92CDB7DEB78FEF8B831A824D
:102110005EC08A81882F90E0FC01E358FF4F9081D8
:1021200083E0692F40E00E94930E19823DC08981AF
:10213000882F90E0FC01E758FF4F90819E012C5FB3
:102140003F4F82E0692FA9010E94E60F8C8188230E
:1021500041F58981482F50E08A81282F30E0CA015B
:10216000880F991F880F991F820F931FFC01EF574B
:10217000FF4F80818B830FC08981882F90E0FC0105
:10218000E758FF4F90819E012C5F3F4F82E0692FFF
:10219000A9010E94E60F8C81882371F38B818D83C6
:1021A0001CC089818F5F89838981843008F4BFCF07
:1021B0008A81882F90E0FC01E358FF4F908183E0F3
:1021C000692F41E00E94930E8A818F5F8A838A8102
:1021D000843008F49ECF8B818D838D810F900F907A
:1021E0000F900F900F90CF91DF910895DF93CF93D1
:1021F000CDB7DEB7EAE3F0E08FEF8083E7E3F0E00E
:1022000087E18083E4E3F0E01082E1E3F0E088EE30
:102210008083EBE3F0E01082E8E3F0E01082E5E396
:10222000F0E08FEF8083E2E3F0E088EE8083CF91EF
:10223000DF910895DF93CF93CDB7DEB7A0970FB6A8
:10224000F894DEBF0FBECDBF1C8E1B8E1A8E198A6E
:102250001A8A1B8A1C8A1D861E861F86188A198266
:102260001A821B821C820E94F6100E9447060E945E
:102270007E10882F90E0A0E0B0E08D8B9E8BAF8B1E
:10228000B88F8D899E89AF89B88D8F3F9105A10543
:10229000B10569F38D899E89AF89B88D8B3291051F
:1022A000A105B105E1F08D899E89AF89B88D8D3288
:1022B0009105A105B10599F08D899E89AF89B88DE9
:1022C0008A329105A105B10551F08D899E89AF89AA
:1022D000B88D8F329105A105B10509F074C28D89C1
:1022E000898F898D0E94260B0E947E10882F90E096
:1022F000A0E0B0E08D8B9E8BAF8BB88F8D899E89CF
:10230000AF89B88D8F3F9105A105B10569F38D891E
:102310009E89AF89B88D8D339105A105B10509F06E
:1023200094C18D890E94260B898D282F30E038A317
:102330002F8F8F8D98A18B329105B1F02F8D38A101
:102340002C32310534F48F8D98A18A32910571F1C8
:1023500052C02F8D38A12D323105B9F08F8D98A143
:102360008F329105B1F147C089899A89AB89BC89BF
:102370002D853E854F855889820F931FA41FB51F59
:1023800089879A87AB87BC8736C089899A89AB8948
:10239000BC892D853E854F855889821B930BA40BE4
:1023A000B50B89879A87AB87BC8725C089899A89AD
:1023B000AB89BC892D853E854F855889BC01CD01EF
:1023C0000E94A914DC01CB0189879A87AB87BC875F
:1023D00012C089899A89AB89BC892D853E854F8534
:1023E0005889BC01CD010E94C814DA01C90189874E
:1023F0009A87AB87BC87898D8F3269F48D859E85DE
:10240000AF85B8890097A105B10529F48BE690E066
:102410000E943F0D69CF89859A85AB85BC85BC013B
:10242000CD010E94D50D0E947E10882F90E0A0E083
:10243000B0E08D8B9E8BAF8BB88F8D899E89AF89D5
:10244000B88D8F3F9105A105B10569F38D899E89EE
:10245000AF89B88D80349105A105B10521F481E0E3
:102460000E940D0941CF8D899E89AF89B88D8B322D
:102470009105A105B105E1F08D899E89AF89B88DDF
:102480008D329105A105B10599F08D899E89AF899D
:10249000B88D8A329105A105B10551F08D899E89CB
:1024A000AF89B88D8F329105A105B10509F01CCF18
:1024B00081E00E940D0989859A85AB85BC85BC01A8
:1024C000CD010E94D50D8D89898F898D0E94260BA3
:1024D0000E947E10882F90E0A0E0B0E08D8B9E8B54
:1024E000AF8BB88F8D899E89AF89B88D8F3F91054D
:1024F000A105B10569F38D899E89AF89B88D8D33AA
:102500009105A105B10509F093C08D890E94260BA4
:10251000898D282F30E03E8F2D8F8D8D9E8D8B32B3
:102520009105B1F02D8D3E8D2C32310534F48D8D19
:102530009E8D8A32910571F152C02D8D3E8D2D32C6
:102540003105B9F08D8D9E8D8F329105B1F147C067
:1025500089859A85AB85BC8529813A814B815C81CF
:10256000820F931FA41FB51F8D839E83AF83B887EF
:1025700036C089859A85AB85BC8529813A814B8196
:102580005C81821B930BA40BB50B8D839E83AF8361
:10259000B88725C089859A85AB85BC8529813A8114
:1025A0004B815C81BC01CD010E94A914DC01CB01EF
:1025B0008D839E83AF83B88712C089859A85AB854A
:1025C000BC8529813A814B815C81BC01CD010E948F
:1025D000C814DA01C9018D839E83AF83B8878D81CA
:1025E0009E81AF81B885BC01CD010E94D50D0E94AE
:1025F0007E10882F90E0A0E0B0E08D8B9E8BAF8B9B
:10260000B88F8D899E89AF89B88D8F3F9105A105BF
:10261000B10569F38D899E89AF89B88D80349105A4
:10262000A105B10509F054CF81E00E940D0950CFFA
:102630008D899E89AF89B88D89839A83AB83BC834A
:102640008981805D0E94260B43CF8B8D8F5F8B8F9E
:102650008B8D813069F48D899E89AF89B88D8D8786
:102660009E87AF87B88B8D85805D0E94260B3CCE00
:102670008B8D8230F9F48D859E85AF85B8892AE0EF
:1026800030E040E050E0BC01CD010E94A9149B0164
:10269000AC018D899E89AF89B88D820F931FA41FCD
:1026A000B51F8D879E87AF87B88B8D89805D0E940F
:1026B000260B1ACE8B8D8330F9F48D859E85AF85E0
:1026C000B8892AE030E040E050E0BC01CD010E9432
:1026D000A9149B01AC018D899E89AF89B88D820FA9
:1026E000931FA41FB51F8D879E87AF87B88B8D89D9
:1026F000805D0E94260BF8CD8B8D8430F9F48D859A
:102700009E85AF85B8892AE030E040E050E0BC010A
:10271000CD010E94A9149B01AC018D899E89AF89CE
:10272000B88D820F931FA41FB51F8D879E87AF871B
:10273000B88B8D89805D0E94260BD6CD8B8D853020
:10274000F9F48D859E85AF85B8892AE030E040E0B8
:1027500050E0BC01CD010E94A9149B01AC018D8900
:102760009E89AF89B88D820F931FA41FB51F8D87D7
:102770009E87AF87B88B8D89805D0E94260BB4CD74
:102780008B8D863009F0B0CD8D859E85AF85B8895B
:102790002AE030E040E050E0BC01CD010E94A914E5
:1027A0009B01AC018D899E89AF89B88D820F931FE3
:1027B000A41FB51F8D879E87AF87B88B8D89805DDD
:1027C0000E94260B91CD8C8D8F5F8C8F8C8D8130EC
:1027D00069F48D899E89AF89B88D898B9A8BAB8B73
:1027E000BC8B8989805D0E94260B41CD8C8D823007
:1027F000F9F489899A89AB89BC892AE030E040E004
:1028000050E0BC01CD010E94A9149B01AC018D894F
:102810009E89AF89B88D820F931FA41FB51F898B26
:102820009A8BAB8BBC8B8D89805D0E94260B1FCD54
:102830008C8D8330F9F489899A89AB89BC892AE027
:1028400030E040E050E0BC01CD010E94A9149B01A2
:10285000AC018D899E89AF89B88D820F931FA41F0B
:10286000B51F898B9A8BAB8BBC8B8D89805D0E9449
:10287000260BFDCC8C8D8430F9F489899A89AB893B
:10288000BC892AE030E040E050E0BC01CD010E946C
:10289000A9149B01AC018D899E89AF89B88D820FE7
:1028A000931FA41FB51F898B9A8BAB8BBC8B8D8913
:1028B000805D0E94260BDBCC8C8D853019F58989D3
:1028C0009A89AB89BC892AE030E040E050E0BC0145
:1028D000CD010E94A9149B01AC018D899E89AF890D
:1028E000B88D820F931FA41FB51F898B9A8BAB8B5A
:1028F000BC8B8D899E89AF89B88DBC01CD010E94AA
:10290000D50DB5CC8C8D863009F0B1CC89899A89EA
:10291000AB89BC892AE030E040E050E0BC01CD0149
:102920000E94A9149B01AC018D899E89AF89B88D45
:10293000820F931FA41FB51F898B9A8BAB8BBC8B07
:102940008D899E89AF89B88DBC01CD010E94D50DBE
:102950008ECC629FD001739FF001829FE00DF11D2C
:10296000649FE00DF11D929FF00D839FF00D749F09
:10297000F00D659FF00D9927729FB00DE11DF91FB5
:10298000639FB00DE11DF91FBD01CF011124089512
:10299000A1E21A2EAA1BBB1BFD010DC0AA1FBB1F63
:1029A000EE1FFF1FA217B307E407F50720F0A21BD5
:1029B000B30BE40BF50B661F771F881F991F1A9442
:1029C00069F760957095809590959B01AC01BD016C
:1029D000CF0108952F923F924F925F926F927F9214
:1029E0008F929F92AF92BF92CF92DF92EF92FF921F
:1029F0000F931F93CF93DF93CDB7DEB7CA1BDB0BCB
:102A00000FB6F894DEBF0FBECDBF09942A8839886F
:102A100048885F846E847D848C849B84AA84B98476
:102A2000C884DF80EE80FD800C811B81AA81B98182
:102A3000CE0FD11D0FB6F894DEBF0FBECDBFED0196
:062A40000895F894FFCF99
:102A460030313233343536373839004552524F52E9
:102A56000000000000000000000504030207060550
:102A6600030102032F0405062A0708092D40003D2D
:022A76002B0033
:00000001FF
